:020000040800F2
:10000000B0E100209D0100080D0F00085D0B000805
:10001000090F000815080008151A00080000000064
:10002000000000000000000000000000791200083D
:1000300083080008000000009D0F0008A9130008B5
:10004000B7010008B7010008B7010008B7010008B0
:10005000B7010008B7010008B7010008B7010008A0
:10006000B7010008B7010008B7010008B701000890
:10007000B7010008B7010008B7010008B701000880
:10008000B7010008B7010008B7010008B701000870
:10009000B7010008B7010008B7010008850800088B
:1000A000B7010008B7010008B7010008B701000850
:1000B000B7010008B7010008B7010008B701000840
:1000C000B7010008B7010008B7010008B701000830
:1000D000B7010008051600081516000825160008C7
:1000E000B7010008B7010008B7010008B701000810
:1000F000B7010008B7010008B7010008B701000800
:10010000B7010008B7010008B7010008B7010008EF
:10011000B7010008B7010008B7010008B7010008DF
:10012000B7010008B7010008B7010008B7010008CF
:10013000B7010008B7010008B7010008B7010008BF
:10014000B7010008B7010008B7010008B7010008AF
:10015000B7010008B7010008B70100084D160008F4
:10016000B7010008B7010008B7010008B70100088F
:10017000B7010008B7010008B7010008B70100087F
:10018000B7010008B7010008DFF80CD000F040F814
:1001900000480047D5220008B0E10020064880470B
:1001A00006480047FEE7FEE7FEE7FEE7FEE7FEE75C
:1001B000FEE7FEE7FEE7FEE73514000889010008C8
:1001C00040EA01039B0703D009E008C9121F08C0D9
:1001D000042AFAD203E011F8013B00F8013B521E59
:1001E000F9D2704730B50B46014600202022012489
:1001F00009E021FA02F59D4205D303FA02F5491BF5
:1002000004FA02F52844151EA2F10102F1DC30BD0A
:10021000064C074D06E0E06840F0010394E8070053
:1002200098471034AC42F6D3FFF7B2FFF42400082D
:10023000142500081CB50121084600F079FF0121B2
:10024000182000F065FF0C2200214C4800F05FFCF4
:100250000C220121494800F05AFC0C220421474895
:1002600000F055FC0C220521444800F050FC0C2203
:100270000721424800F04BFC0C2208213F4800F0C7
:1002800046FC0C2209213D4800F041FC0C220A21C9
:100290003A4800F03CFC0C220E21384800F037FCB4
:1002A0000C220F21354800F032FC4CF2B370009064
:1002B00002208DF8040003208DF8050000208DF841
:1002C00006008DF8070069462C4800F0D8FB0C2288
:1002D00007212B4800F01BFC0C220821284800F0C5
:1002E00016FC0C220921264800F011FC0C220A21E0
:1002F000234800F00CFC0C220B21214800F007FCE5
:100300000C2211461E4800F002FC0C220D211C4854
:1003100000F0FDFB0C220E21194800F0F8FB0C2226
:100320000F21174800F0F3FB4FF6807000906946EC
:10033000134800F0A4FB0121132000F0E9FE012086
:100340008DF8040003208DF8050000208DF80600CC
:100350008DF807003C2000906946094800F08FFBAB
:100360004FF4807000906946064800F088FB4020FA
:1003700000906946044800F082FB1CBD000C02405E
:10038000001002400004024000000240F0B589B0B5
:1003900004460121042000F0DBFE0121022000F0D0
:1003A000B7FE4FF48070079002208DF820000320E4
:1003B0008DF8210000208DF8220001208DF8230007
:1003C00007A93E4800F05BFB022208213B4800F0F1
:1003D0009EFB3B4C3B480068470840F6B8308442DF
:1003E00008D263256420B7FBF0F0B0FBF4F0401EA8
:1003F00086B207E00F25B7FBF4F03221B0FBF1F035
:10040000401E86B20796ADF818500020ADF82000C7
:10041000ADF81A0006A92C4801F0B2F86020ADF83A
:1004200004000120ADF80600042003900220ADF87E
:10043000100001A9244801F049F80821224801F0E0
:1004400095F80121204801F029F801211E4801F00A
:1004500031F80121084600F05BFE0121880300F01D
:1004600087FE00208DF818008DF81B008020059075
:1004700005A9164800F003FB0721002000F0FEFE4E
:100480008020079000208DF820000C208DF821009E
:1004900001208DF8220007A800F01AFA17208DF825
:1004A000100000208DF811008DF8120001208DF849
:1004B000130004A800F02CFD09B0F0BD00040240B8
:1004C000400D030020000020000800400000024012
:1004D00000B597B003200190002002900620039001
:1004E0000120049000200590069007900890099044
:1004F0000A9010200B9000200C900D900E900F9001
:1005000010904FF48050119000201290139014908E
:1005100001A81590169008A800F03EFA01210020CD
:1005200000F020FA17B000BD03488088002801DDE4
:10053000012070470020FCE79621002010B500F054
:1005400057F811494A88083101EB021010220F496F
:10055000FFF736FE0C484088401C80B20A494880AC
:10056000B0F5006F01DB0020488007488088B0F5B7
:10057000006F05DA04488088401C0349888002E047
:1005800001200149887110BD96210020862100209C
:1005900010B50446FFF7C8FF30B31448028808308E
:1005A00000EB021110222046FFF70AFE0F480088D8
:1005B000401C80B20D490880B0F5006F01DB0020BF
:1005C0000880012080F3108800BF08488088002838
:1005D00004DD06488088401E04498880002080F39E
:1005E000108800BF012010BD0020FCE796210020EC
:1005F00010B500244FF0C040008800B22149488067
:100600004FF0C040008801B21E4881804FF0C040CA
:10061000008801B21B48C1804FF0C040008801B281
:10062000184801814FF0C040008801B2154841814F
:100630004FF0C040008801B2124881814FF0C040A5
:10064000008801B20F48C1814FF0C040008801B25C
:100650000C4801820CE00B48801C30F8140030B9C3
:10066000094830F814100748801C20F81410641C46
:10067000062CF0DB10220349891C0348FFF7A0FD7C
:1006800010BD0000842100209EA100206420402194
:10069000074A5183118311831183118300BF011E07
:1006A000A0F10100FBD14021014A518370470000B5
:1006B0000000024030B90021064A51702021064A4C
:1006C000518305E00121034A51702021024A118320
:1006D0007047000084210020001002402349087068
:1006E000072835D2DFE800F035040C141C242C0058
:1006F00010211F4A5183082151830421118333E0C3
:1007000010211B4A518308211183042151832BE0BE
:100710001021174A5183082111830421118323E0FA
:100720001021134A118308215183042151831BE0B6
:1007300010210F4A1183082151830421118313E0F2
:1007400010210B4A118308211183042151830BE0EE
:1007500000BF0021054A11701021054A518308216C
:1007600051830421518300BF00BF704784210020C2
:100770000010024064204FF48071084A11801180FB
:100780001180118000BF011EA0F10100FBD14FF4C8
:100790008071024A921E1180704700001A040240C4
:1007A00010B5044600F010F8FFF770FFFFF7E2FF06
:1007B0000020044908804880888088712046FFF71F
:1007C000E5FD10BD962100201CB500210E4800F06B
:1007D00071FE0121084600F09BFC01208DF8040009
:1007E00003208DF8050000208DF806008DF8070025
:1007F000802000906946054800F041F94FF4807070
:10080000034908801CBD00000008004000000240B1
:100810001804024000BFFEE708B54FF4E06000F0A6
:10082000B3FB25208DF8000000208DF80200012088
:100830008DF80300684600F06BFB26208DF8000061
:1008400001208DF802008DF80300684600F060FB7F
:1008500027208DF8000002208DF8020001208DF87D
:100860000300684600F054FB47208DF80000052087
:100870008DF8020001208DF80300684600F048FB67
:1008800008BD704710B5802000F00EF820B1FFF7CA
:1008900055FE802000F002F810BD000001490860FC
:1008A00070470000143C0140014600200022074B25
:1008B0001B6803EA0102054B14331B680B4013B19C
:1008C0000AB1012000E0002070470000003C014018
:1008D000002123498279002A3AD00A461268036827
:1008E0009A430B461A600A1D126803689A430B1D4F
:1008F0001A60027911440A6803681A430A60184AA8
:100900000832126803689A43154B08331A601A1D9F
:10091000126803689A43124B0C331A604279102A0A
:100920000ED11A1F126803681A430D4B08331A6060
:100930001A1D126803681A43094B0C331A600DE044
:100940000749427911440A6803681A430A6005E0BE
:10095000027911440A6803689A430A6070470000EC
:10096000003C014051B18200A2F1C042126842F045
:1009700001038200A2F1C042136009E08200A2F1EB
:10098000C0421268034B1A408300A3F1C0431A60AF
:1009900070470000FEFF0F00D0E901121143C2684A
:1009A0001143026911434269114382691143C269CB
:1009B0001143026A1143426A1143826A1143C26AB7
:1009C0001143026B114302689200A2F1C042116010
:1009D000816808290BD101688900A1F1C04109682B
:1009E00041F0400201688900A1F1C0410A60416BF9
:1009F0000968426B526841EA0211426B926841EA0F
:100A00000221426B928941EA0241426B128A41EA19
:100A10000251426B127D41EA0261426B92691143BD
:100A20000268521C9200A2F1C0421160C16AB1F585
:100A3000804F1BD1816B0968826B526841EA0211B9
:100A4000826B926841EA0221826B128A41EA02516A
:100A5000826B127D41EA0261826B926911430268E6
:100A60009200A2F1C042C2F8041107E06FF0704298
:100A700001688900A1F1C041C1F804217047F0B5B7
:100A80000A4600210023002400BF3DE0012505FAAD
:100A900001F3156805EA03049C4234D105684F0050
:100AA0000326BE40B543056015794E00B540066883
:100AB000354305601579012D02D01579022D16D127
:100AC00085684F000326BE40B543856055794E00CA
:100AD000B540866835438560456801268E40B5433C
:100AE0004560456896798E40B6B235434560C56825
:100AF0004F000326BE40B543C560D5794E00B540D2
:100B0000C6683543C560491C1029BFD3F0BDF0B598
:100B1000002300244D07ED0E02FA05F3CE1000F17C
:100B2000200555F826504E07F70E0F26BE40B54358
:100B3000CF1000F1200646F82750CE1000F1200516
:100B400055F8265045EA0304CE1000F1200545F87B
:100B50002640F0BD42694A404261704700BFFEE74F
:100B600000B587B00121084600F0D2FA012110201B
:100B700000F0FEFA07220921AA48FFF7C8FF072262
:100B80000A21A848FFF7C3FF00208DF81A000120B2
:100B90008DF81B0002208DF818000002059002203D
:100BA0008DF8190005A99F48FFF769FF02208DF80D
:100BB00018004002059005A99A48FFF760FF9A487F
:100BC00001900020ADF80800ADF80A00ADF80C0067
:100BD000ADF810000C20ADF80E0001A9934800F00C
:100BE000AFFD012240F22551904800F083FD012124
:100BF0008E4800F03CFD40218C4800F02FFD012183
:100C0000084600F085FA0121480400F0A1FA072205
:100C100003218448FFF77BFF00208DF81A00012094
:100C20008DF81B0002208DF818008DF818000820A0
:100C3000059002208DF8190005A97A48FFF71FFFDB
:100C40004FF4165001900020ADF80800ADF80A00EE
:100C5000ADF80C00ADF810000420ADF80E0001A9AD
:100C6000734800F06DFD012240F22551704800F0FC
:100C700041FD01216E4800F0FAFC40216C4800F073
:100C8000EDFC0121022000F043FA01208DF818004C
:100C900000208DF81A008DF81B0003208DF8190034
:100CA0000420059005A96348FFF7E9FE0121022011
:100CB00000F02EFA0121880400F04AFA07220A21E6
:100CC0005C48FFF724FF07220B215A48FFF71FFF5C
:100CD00000208DF81A0001208DF81B0002208DF8ED
:100CE00018004002059002208DF8190005A951480E
:100CF000FFF7C5FE02208DF818008002059005A9B7
:100D00004C48FFF7BCFE4FF4165001900020ADF8A0
:100D10000800ADF80A00ADF80C00ADF810000C208A
:100D2000ADF80E0001A9444800F00AFD012240F28E
:100D30002551414800F0DEFC01213F4800F097FCBE
:100D400040213D4800F08AFC0121442000F0E0F9F8
:100D50000121202000F00CFA08220E213748FFF76D
:100D6000D6FE082207213648FFF7D1FE0822114699
:100D70003248FFF7CCFE08220F213048FFF7C7FEAC
:100D800000208DF81A0001208DF81B0002208DF83C
:100D900018004003059002208DF8190005A9274886
:100DA000FFF76DFE02208DF818008020059005A940
:100DB0002348FFF764FE02208DF81800C00105905B
:100DC00005A91E48FFF75BFE02208DF8180080037E
:100DD000059005A91948FFF752FE4FF4E130019044
:100DE0000020ADF80800ADF80A00ADF80C004FF493
:100DF0004070ADF810000C20ADF80E0001A91148AC
:100E000000F09EFC012240F225510E4800F072FCD9
:100E100001210C4800F02BFC40210A4800F01EFC88
:100E200007B000BD0000024060E316000010014062
:100E30000044004000040240004800400018024006
:100E400000080240001401400448006900F480706A
:100E500008B9012070470020FCE700000020024094
:100E60000448006800F4005008B9012070470020D1
:100E7000FCE70000100802400448006900F400602C
:100E800008B9012070470020FCE700000020024064
:100E90000448006800F0040008B9012070470020F1
:100EA000FCE70000101C02400448006800F0080045
:100EB00008B9012070470020FCE70000101C024028
:100EC0000448006800F4006008B901207047002061
:100ED000FCE70000101402400448006800F08000A5
:100EE00008B9012070470020FCE7000010180240FC
:100EF0000448006800F4004008B901207047002051
:100F0000FCE70000101C024000BFFEE77047000035
:100F100070B5002100230F22C4781CB3174C24683D
:100F200004F4E064C4F5E064C4F30721C1F10404EF
:100F3000E3B20A4144789C40E1B2847814402143F2
:100F40000C07210E0E4C05786155047804F01F053E
:100F50000124AC4005786D11AD0005F1E025C5F820
:100F6000004109E0047804F01F050124AC40054D60
:100F70000678761145F8264070BD00000CED00E0C3
:100F800000E400E080E100E002490143024A116010
:100F9000704700000000FA050CED00E0704700000B
:100FA00010B512A000F048FD20A126A000F044FDDD
:100FB00029A12AA000F040FD2DA130A000F03CFDA9
:100FC00002230022012132A000F036FD37A000F0FC
:100FD00033FD38A000F030FD3CA000F02DFD42A014
:100FE00000F02AFD01A000F027FD10BD2A2A2A2AC0
:100FF0002A2A2A2A2A2A2A2A2A2A2A2A2A2A2A2A51
:101000002A2A2A2A2A2A2A2A2A2A2A2A2A2A2A2A40
:101010002A2A2A2A2A2A2A2A2A2A2A2A2A2A2A2A30
:101020002A2A2A2A2A2A2A2A2A0A0D0046342D3058
:1010300032395F414437363036C4A3BFE9C0FDB30F
:10104000CC0000002A20C0FDB3CCC3FBB3C62020D7
:10105000203A2025730D0A00312E30002A20C0FDD1
:10106000B3CCB0E6B1BE2020203A2025730D0A0093
:10107000323031332D30322D303100002A20B7A2EA
:10108000B2BCC8D5C6DA2020203A2025730D0A004C
:101090002A20B9CCBCFEBFE2B0E6B1BE203A202582
:1010A000642E25642E25640D0A0000002A200A0DF6
:1010B000000000002A205151202020203A20313207
:1010C0003935373434363330200D0A002A20456D47
:1010D00061696C203A2061726D666C794071712E85
:1010E000636F6D200D0A00002A20436F70797269CA
:1010F000676874207777772E61726D666C792E63DE
:101100006F6D20B0B2B8BBC0B3B5E7D7D30D0A003E
:1011100029B1064A12680243044B1A6004E0034AEC
:1011200012688243014B1A60704700003038024059
:1011300029B1064A12680243044B1A6004E0034ACC
:1011400012688243014B1A60704700003838024031
:1011500029B1064A12680243044B1A6004E0034AAC
:1011600012688243014B1A60704700004038024009
:1011700029B1064A12680243044B1A6004E0034A8C
:1011800012688243014B1A607047000044380240E5
:10119000F0B5002100220024022500260223324F50
:1011A0003F6807F00C0121B1042905D0082937D187
:1011B00005E02E4F076036E02D4F076033E02A4FE1
:1011C0003F1F3F68C7F38056274F3F1F3F6807F018
:1011D0003F036EB1264FB7FBF3F7DFF88CC0ACF1DD
:1011E000040CDCF800C0CCF3881C07FB0CF40CE00A
:1011F0001E4FB7FBF3F7DFF870C0ACF1040CDCF85E
:1012000000C0CCF3881C07FB0CF4174F3F1F3F684E
:10121000C7F301477F1C7D00B4FBF5F7076002E0D0
:10122000124F076000BF00BF0F4F3F6807F0F0018B
:101230000909104F7A5C0768D74047600A4F3F683A
:1012400007F4E051890A0B4F7A5C4768D740876002
:10125000054F3F6807F46041490B064F7A5C4768C9
:10126000D740C760F0BD0000083802400024F400F9
:1012700000127A000E0000207047000030B50022F6
:101280008B071C0F0F2303FA04F20B4B8C1053F83F
:1012900024309343084C8D1044F8253023468C109D
:1012A00053F824308C07240F00FA04F42343024C33
:1012B0008D1044F8253030BD083801400CB50020B1
:1012C000019000903448006840F480303249086052
:1012D00000BF3148006800F4003000900198401CC5
:1012E0000190009818B90198B0F5A06FF1D12A4883
:1012F000006800F4003010B10120009001E00020EF
:1013000000900098012846D123484030006840F002
:1013100080502149403108602048006840F48040F6
:101320001E4908601C48083000681B4908310860E5
:101330000846006840F4004008600846006840F431
:10134000A05008601648091F0860081F006840F098
:101350008070091F086000BF0F48006800F000702F
:101360000028F9D040F205600E4908600A480830AC
:10137000006820F00300084908310860084600684A
:1013800040F00200086000BF03480830006800F029
:101390000C000828F8D10CBD003802400070004055
:1013A00019544007003C024010B500F001F810BD90
:1013B00010B51B48006840B119480068401E184924
:1013C000086010B9012017490870002408E004EBF8
:1013D0004401154A02EB810000F0D7FE601CC4B244
:1013E000042CF4DB11480068401C104908600846D2
:1013F00000686FF00041884202D100200B4908606C
:1014000000F0C2FE0A480078401CC0B208490870CB
:101410000A2803DB0020087000F0B2FE10BD0000B7
:101420000000002004000020C4000020080000206C
:101430000C00002010B51548006840F470001349F6
:1014400008601348006840F001001149086000205E
:101450000F49083108600E4800680E4908400C49E1
:1014600008600D48091D0860081F006820F48020EE
:10147000091F0860002006490C310860FFF71EFFB5
:101480004FF0006001498039086010BD88ED00E030
:1014900000380240FFFFF6FE1030002421B1028820
:1014A00042F08002028004E002884FF67F731A4007
:1014B0000280704721B1028842F00102028004E0FC
:1014C00002884FF6FE731A400280704770B5002400
:1014D00000220023058C4FF6FF6635400584028C00
:1014E0008388848B4FF68F752C404FF6FC752C400B
:1014F0000D882C434FF6FF552A408D894FF6FF7615
:1015000006EA05252A434D8806EA05252A43154D96
:10151000A84202D0144DA8421DD14FF2FF752A40B7
:10152000CD894FF6FF7606EA05252A434FF6FF35AB
:101530002A408D8806EA05252A434EF6FF752B4082
:101540004DF6FF752B400D8A06EA05152B434D8A93
:1015500006EA05152B43838084838D68C563028466
:1015600070BD000000000140000401400A46002157
:10157000818B4FF6F7731940114381837047000048
:1015800000220288184B98420ED0184B98420BD07C
:10159000B0F1804F08D0164B984205D0154B9842B9
:1015A00002D0154B984204D14FF68F731A404B88E6
:1015B0001A43124B984207D0114B984204D04FF671
:1015C000FF431A400B891A4302804B68C3620B88A1
:1015D0000385054B984202D0044B984201D18B7A87
:1015E000038601238382704700000140000401400C
:1015F0000004004000080040000C004000100040C3
:101600000014004010B5024800F00DF910BD0000B4
:10161000F400002010B5024800F005F910BD0000EC
:101620001809002010B5024800F0FDF810BD0000B8
:101630003C11002004200149088070471804024032
:1016400004200149088070471A04024010B502487E
:1016500000F0E9F810BD00006019002001F40072EC
:10166000B2F5007F00D100BFCA430280704721B1AC
:10167000828942F40052828104E082894DF6FF7330
:101680001A408281704702460020B1F5007F00D1E8
:1016900000BF13880B400BB1012000E00020704711
:1016A00070B50246002400230025002040F66A168B
:1016B000B14200D100BFC1F3421501F01F03012662
:1016C00006FA03F3012D02D19689334006E0022D7C
:1016D00002D1168A334001E0968A33400C1201266B
:1016E00006FA04F41688344013B10CB1012000E06E
:1016F000002070BDF0B50346002400260025002020
:1017000040F66A17B94200D100BF1846C1F342142F
:1017100001F01F06012707FA06F5012C01D10C3054
:1017200004E0022C01D1103000E014301AB1076837
:101730002F43076002E00768AF430760F0BD000079
:101740002DE9FF4705460E460024A14600BFA046EE
:10175000B08900B100BF2C8A24F44054F0880443BF
:101760002C82AC8941F20C608443B08831890843F3
:10177000718908430443AC81AC8A24F44074B08975
:101780000443AC826846FFF703FD2048854202D03F
:101790001F48854202D1DDF80C9001E0DDF8089089
:1017A000A88900F4004040B109EBC90000EB091022
:1017B00031684900B0FBF1F707E009EBC90000EB25
:1017C000091031688900B0FBF1F76420B7FBF0F035
:1017D00004012009642101FB1078A88900F400406D
:1017E00040B1322000EBC800B0FBF1F000F0070080
:1017F000044308E0322000EB08106421B0FBF1F054
:1018000000F00F0004432C81BDE8FF870010014069
:101810000014014001468888C0F308007047C1F3F6
:1018200008028280704710B5044640F225512068B6
:10183000FFF736FFB0B1A08AE18A884203D1206A5F
:1018400008B1206A80472068FFF7E4FFA28AA168F8
:101850008854A08A401C80B2A082E189884201DBC2
:101860000020A08240F227712068FFF719FF00B323
:10187000608A218A88420CD1002240F227712068B8
:10188000FFF738FF012240F226612068FFF732FFA0
:1018900033E0638A6268D15C2068FFF7C0FF608A2A
:1018A000401C80B26082A189884226DB00206082D1
:1018B00023E040F226612068FFF7F2FEE8B1608A7B
:1018C000218A88420AD1002240F226612068FFF76F
:1018D00011FFE06988B1E06980470EE0638A6268C1
:1018E000D15C2068FFF79BFF608A401C80B2608259
:1018F000A189884201DB0020608210BD2DE9F04102
:1019000004460E46174600250CE0715D2068FFF77F
:1019100086FF00BF80212068FFF7B5FE0028F9D0C0
:10192000681C85B2BD42F0DBBDE8F081274828493C
:10193000086028484860284888604FF480608881A3
:10194000C8810020088248828882C8828861C86174
:10195000086222482249086022484860224888607C
:1019600001208881C002C8810020088248828882C4
:10197000C8828861C86108621C481D4908601D480A
:1019800048601D4888604FF480608881C8810020CD
:10199000088248828882C882184888611848C861CD
:1019A000002008621748184908601848486018481D
:1019B00088604FF480608881C88100200882488256
:1019C0008882C8828861C86108627047001001403F
:1019D000F4000020180100201805002000440040F9
:1019E000180900200D0000203C090020004800409C
:1019F0003C11002060110020601500203516000801
:101A000041160008001401406019002084190020CC
:101A1000841D002000BFFEE770B504460D46294630
:101A20002046FFF7FCFE00BF80212046FFF72BFE7B
:101A30000028F9D070BD00000FB4054B10B503A904
:101A4000044A029800F01AF810BC5DF814FB00007C
:101A5000C12200083400002002E008C8121F08C19B
:101A6000002AFAD170477047002001E001C1121F1F
:101A7000002AFBD1704780F3108870472DE9FF4F93
:101A80008BB088460546002606E025280BD0DDE908
:101A90000D1290476D1C761C28780028F5D10FB0E8
:101AA0003046BDE8F08F0024A146A2460122AE498F
:101AB00000E0044315F8013F203B02FA03F008421E
:101AC000F7D128782A2810D06FF02F022878A0F1BB
:101AD0003001092915D809EB890102EB410144F0D5
:101AE000020400EB01096D1CF0E758F8041B5FEAE3
:101AF000010903D544F40054C9F1000944F002047B
:101B00006D1C28782E2817D115F8010F44F0040415
:101B10002A280ED06FF02F022878A0F13001092971
:101B20000AD80AEB8A0102EB410100EB010A6D1CA5
:101B3000F2E758F804AB6D1C28786C280FD006DC4F
:101B40004C2817D068280DD06A2814D104E07428D6
:101B500010D07A280FD10DE044F400140AE044F4C8
:101B6000801401E044F440146978814202D104F504
:101B700080146D1C6D1C2878692865D006DC00284F
:101B80008DD0632827D0642806D15DE06E2808D068
:101B900073282AD0752877D0DDE90D129047761C7E
:101BA000E0E0C4F30250022809D003280DD0D8F891
:101BB000001004280DD00E6008F10408D2E0D8F817
:101BC0000010F217C1E90062F6E7D8F800100E80A5
:101BD000F2E70E70F0E718F8041B8DF800100020F3
:101BE0008DF80100EB46012003E058F804BB4FF0EC
:101BF000FF3061074FF0000701D40AE07F1C574512
:101C00000DDA8742FADB1BF807100029F6D106E04F
:101C10007F1C8742FCDB1BF807100029F8D1DDE9A7
:101C20000D23A9EB07008146214600F0B1F83044AE
:101C3000C61904E0DDE90D121BF8010B90477F1E69
:101C4000F8D22146484688E058F8040BC4F3025104
:101C50004FF00A0B032900D100B2042900D140B291
:101C6000002802DA40422D2102E0210505D52B2172
:101C70008DF82410012104E006E0E10710D02021B6
:101C8000F6E708AF089113E058F8040BC4F30251CB
:101C90004FF00A0B032900D180B2042900D1C0B251
:101CA0000021EEE75946FEF79DFA303107F8011D95
:101CB0000028F7D1ADEB070000F1200B600702D53B
:101CC00024F4803401E04FF0010ADA4502DDAAEB8A
:101CD0000B0000E00020824600EB0B010898014455
:101CE000A9EB01000A90E00306D4DDE90D232146AB
:101CF0000A9800F04DF806444FF0000908E009A9E1
:101D000011F80900DDE90D12904709F10109761C6F
:101D100008998945F3DBE0030CD5DDE90D23214665
:101D20000A9800F035F8064404E0DDE90D12302091
:101D30009047761CBAF10001AAF1010AF5DC05E032
:101D4000DDE90D1217F8010B9047761CBBF100017D
:101D5000ABF1010BF4DC0A982146DDE90D2300F01C
:101D600005F806446D1C97E6092801002DE9F041AD
:101D7000044600251E461746880404D405E039466B
:101D80002020B0476D1C641EF9D52846BDE8F081BF
:101D90002DE9F041044600251E469046C80301D5B2
:101DA000302700E02027880404D505E04146384666
:101DB000B0476D1C641EF9D52846BDE8F0810000CF
:101DC0000146042901DB0020704701EB4100084A6D
:101DD00002EB80004078012808D1002001EB41028D
:101DE000034B03EB820250700120EDE70020EBE78C
:101DF000C400002070B50546304800EB051420688B
:101E0000804700283ED02079052802DA052020717D
:101E100052E020790A2803DA2079401C20714BE037
:101E2000A07A38B90120A07205EB4501491CC8B25F
:101E300000F096F9208900283EDDE088218988425B
:101E40000DDAE088401C80B2E0802189884233D1DD
:101E500005EB4501C91CC8B200F082F92CE0E07A1C
:101E6000002829DD207B401CC0B22073E17A884223
:101E700022DB0020207305EB4501491CC8B200F0AD
:101E80006FF919E02079052802DD0520207110E0A6
:101E9000207918B12079401E20710AE0A07A01282B
:101EA00007D10020A07205EB4501891CC8B200F0E3
:101EB00057F90020E080207370BD0000380000203A
:101EC0000B48807A0A4AD27A904201D100207047AA
:101ED0000748807A064A115C1046807A401CC0B2DE
:101EE00090720A2801DB002090720846EFE700009C
:101EF000B8000020704710B500F01EF900F018F887
:101F000000F0CCF810BD000010B5FEF793F9FEF715
:101F1000DFFA0020FEF7E2FB0020FEF7CBFBFEF726
:101F2000B5FB4FF480700149088010BD18040240D1
:101F300010B500F053F800F001F810BD1CB50121F8
:101F40004FF4F270FFF7E4F800208DF804008DF8EC
:101F500006008DF8070002208DF80500C0010090F2
:101F600069461948FEF78BFD4FF400500090694612
:101F70001648FEF784FD4FF4006000906946124851
:101F8000FEF77DFD0420009069461148FEF777FDBD
:101F90000820009069460E48FEF771FD4FF400607E
:101FA000009069460B48FEF76AFD80200090694664
:101FB0000948FEF764FD4FF400400090694604486C
:101FC000FEF75DFD1CBD000000200240000802403D
:101FD000001C024000140240001802400021254A63
:101FE0009172D172002018E06421234A02EB0012A2
:101FF00011810221204A02EB0012117100211E4AB8
:1020000002EB001291721C4A02EB0012D1721A4AC2
:1020100002EB00121173411CC8B20828E4DB6422F1
:1020200015490A87052281F83B206422A1F848203F
:10203000052281F84B206422A1F85820052281F85E
:102040005B206422A1F86820052281F86B200B49EF
:10205000094A11600A4911610A4911620A4911636A
:102060000A4911640A4911650A4911660A4911674A
:1020700070470000B800002038000020490E00081A
:10208000610E0008790E0008910E0008A90E0008E4
:10209000C10E0008D90E0008F10E000870B500202E
:1020A00016E0002100EB40021F4B03EB820251605F
:1020B00000EB400203EB8202916000EB400203EB75
:1020C0008202517000EB400203F82210411CC8B29A
:1020D0000428E6DB154909684FF47A73B1FBF3F283
:1020E000B2F1807F00D31DE022F07F41491E4FF006
:1020F000E023596159170F23002907DA1C07260E20
:102100000B4C01F00F052D1F665503E01C07250E33
:10211000084C655400BF00214FF0E023996107216E
:10212000196100BF70BD0000C40000202000002025
:1021300018ED00E000E400E010B5FFF7F7FBFEF754
:102140000FFDFEF769FB10BD10B5002404E020462A
:10215000FFF750FE601CC4B2082CF8DB10BD000075
:102160000649C97A054A50541146C97A491CC9B270
:10217000D1720A2901DB0021D1727047B80000201A
:1021800010B5FFF7E1FF10BD7047416851B14168DC
:10219000491E416031B9012141700178012901D105
:1021A000816841607047000070B504460D46042CFC
:1021B00006DB124A12A11DA0FFF73EFC00BFFEE79E
:1021C0000120FFF758FC04EB4400204901EB80009C
:1021D000456004EB440001EB80008560002004EBC7
:1021E00044011A4A02EB81014870012004EB4401CA
:1021F00002F821000020FFF73EFC70BDD324000848
:102200002E2E5C2E2E5C557365725C6273705F734C
:10221000746D3332663478785C7372635C627370A9
:102220005F74696D65722E63000000004572726F05
:10223000723A2066696C652025732C2066756E6382
:1022400074696F6E20257328290D0A00C4000020D0
:102250002DE9F04104460E4617460CB9104D13E027
:10226000012C01D10F4D0FE0022C01D10E4D0BE0DE
:10227000032C01D1BDE8F081042C00D1FAE7052C34
:1022800001D10A4D00E0F5E7A86908B1A8698047C7
:102290003A4631462846FFF731FB00BFEAE7000027
:1022A000F4000020180900203C11002060190020D3
:1022B00013B50446012201A92046FFF7C9FF1CBD42
:1022C00070B504460D46E1B20020FFF7F1FF20464D
:1022D00070BD00008AB00025FFF70DFE012102202D
:1022E000FEF716FF01208DF8100003208DF8110075
:1022F00000208DF812008DF813003020039003A900
:102300004048FEF7BCFBFEF74BFE0026FFF7FCFD46
:102310000020FEF7E3F90020FEF7CCF94FF4FA7144
:102320000020FFF741FFFEF725FA00BF012636A087
:10233000FFF782FB4248FEF733FAA5208DF8140020
:102340005A208DF825005BE0FFF7D4FD01A8FEF7C9
:102350001FF9B8B110212B48FEF7FCFB20212948BA
:10236000FEF7F8FB102201A90DF11500FDF728FF7B
:10237000002405E005A8015D3248FFF74DFB641C11
:10238000122CF7DB012D2AD1002510211D48FEF764
:10239000E1FB20211B48FEF7DDFB2B48027841784A
:1023A0002AA0FFF749FB2848B0F90800009026480A
:1023B000B0F90630B0F90420B0F9021029A0FFF7F7
:1023C0003BFB2148B0F9100000901F48B0F90E30D7
:1023D000B0F90C20B0F90A102EA0FFF72DFB4EB972
:1023E0000020FFF7EDFC40B1FEF702F9FEF7C2F95D
:1023F000012502E00020FFF7E3FCFFF761FD00BFCD
:10240000A2E70000000402400D0A4144373630368E
:10241000BDF8C8EB4649464FB9A4D7F7C4A3CABD17
:1024200020283230304B487A2038CDA8B5C0CDAC0A
:10243000B2BDB2C9BCAF292E2E2E0D0A000000007D
:10244000400D0300001001408421002052616E679E
:1024500065203D2025642C204F53203D2025642CF1
:1024600020000000434831203D202536642C2043C5
:102470004832203D202536642C20434833203D201F
:102480002536642C20434834203D202536642C20FA
:1024900000000000434835203D202536642C2043B1
:1024A0004836203D202536642C20434837203D20E7
:1024B0002536642C20434838203D202536640D0AFB
:1024C000000000006273705F537461727454696D30
:1024D0006572006273705F53746172744175746FDA
:1024E00054696D6572006273705F53746F705469E4
:1024F0006D657200142500080000002038000000FF
:10250000581A00084C2500083800002078E1000027
:10251000681A000800000000000000000000000031
:10252000000000000000010203040102030406078A
:1025300008090000007A030A000000000000000003
:0C25400001020304060708090000000067
:040000050800018965
:00000001FF
