:020000042000DA
:10000000886100109D01002009070020570300208F
:100010000507002011020020C5100020000000008C
:10002000000000000000000000000000BD0A0020E9
:100030007F0200200000000099070020990B00209B
:10004000B7010020B7010020B7010020B701002050
:10005000B7010020B7010020B7010020B701002040
:10006000B7010020B7010020B7010020B701002030
:10007000B7010020B7010020B7010020B701002020
:10008000B7010020B7010020B7010020B701002010
:10009000B7010020B7010020B7010020B701002000
:1000A000B7010020B7010020B7010020B7010020F0
:1000B000B7010020B7010020B7010020B7010020E0
:1000C000B7010020B7010020B7010020B7010020D0
:1000D000B70100208D0C00209D0C0020AD0C0020ED
:1000E000B7010020B7010020B7010020B7010020B0
:1000F000B7010020B7010020B7010020B7010020A0
:10010000B7010020B7010020B7010020B70100208F
:10011000B7010020B7010020B7010020B70100207F
:10012000B7010020B7010020B7010020B70100206F
:10013000B7010020B7010020B7010020B70100205F
:10014000B7010020B7010020B7010020B70100204F
:10015000B7010020B7010020B7010020D50C002016
:10016000B7010020B7010020B7010020B70100202F
:10017000B7010020B7010020B7010020B70100201F
:10018000B7010020B7010020DFF80CD000F02EF8F6
:1001900000480047FD18002088610010064880478D
:1001A00006480047FEE7FEE7FEE7FEE7FEE7FEE75C
:1001B000FEE7FEE7FEE7FEE7250C002089010020B0
:1001C00030B50B46014600202022012409E021FA27
:1001D00002F59D4205D303FA02F5491B04FA02F524
:1001E0002844151EA2F10102F1DC30BD064C074D7A
:1001F00006E0E06840F0010394E8070098471034F7
:10020000AC42F6D3FFF7C4FF0C1B00202C1B0020D0
:1002100000BFFEE708B54FF4E06000F0B3FA252018
:100220008DF8000000208DF8020001208DF80300F9
:10023000684600F06BFA26208DF8000001208DF84A
:1002400002008DF80300684600F060FA27208DF860
:10025000000002208DF8020001208DF8030068469E
:1002600000F054FA47208DF8000005208DF80200B8
:1002700001208DF80300684600F048FA08BD704779
:1002800070B50A46002100238C4600BF3DE00124E2
:1002900004FA01F3146804EA030C9C4534D10468A1
:1002A0004E000325B540AC43046014794D00AC40CA
:1002B00005682C4304601479012C02D01479022CB7
:1002C00016D184684E000325B540AC438460547950
:1002D0004D00AC4085682C438460446801258D4006
:1002E000AC434460446895798D40ADB22C43446082
:1002F000C4684E000325B540AC43C460D4794D00BA
:10030000AC40C5682C43C460491C1029BFD370BDE4
:1003100070B500239C464C07E40E02FA04F3CD109E
:1003200000F1200454F825404D07EE0E0F25B5408E
:10033000AC43CE1000F1200545F82640CD1000F169
:10034000200454F8254044EA030CCD1000F12004A9
:1003500044F825C070BD00BFFEE7000000B587B0BF
:100360000121022000F00AFB0121102000F026FBF1
:1003700007220621AB48FFF7CBFF07221146A94809
:10038000FFF7C6FF00208DF81A0001208DF81B0032
:1003900002208DF818004020059002208DF81900E9
:1003A00005A9A048FFF76CFF02208DF818008020F7
:1003B000059005A99B48FFF763FF4FF4E1300190DA
:1003C0000020ADF80800ADF80A00ADF80C00ADF85B
:1003D00010000C20ADF80E0001A9934800F0E8FCD5
:1003E000012240F22551904800F0BDFC01218E48C9
:1003F00000F081FC40218C4800F074FC012108468B
:1004000000F0BCFA0121480400F0C8FA07220321D9
:100410008648FFF77DFF00208DF81A0001208DF837
:100420001B0002208DF818008DF818000820059098
:1004300002208DF8190005A97C48FFF721FF4FF431
:10044000165001900020ADF80800ADF80A00ADF894
:100450000C00ADF810000420ADF80E0001A974489E
:1004600000F0A6FC012240F22551714800F07BFC0F
:1004700001216F4800F03FFC40216D4800F032FC44
:100480000121022000F07AFA01208DF818000020E6
:100490008DF81A008DF81B0003208DF81900042038
:1004A000059005A95F48FFF7EBFE0121022000F04F
:1004B00065FA0121880400F071FA07220A215948DF
:1004C000FFF726FF07220B215648FFF721FF0020E8
:1004D0008DF81A0001208DF81B0002208DF81800FD
:1004E0004002059002208DF8190005A94D48FFF73C
:1004F000C7FE02208DF818008002059005A9494822
:10050000FFF7BEFE4FF4165001900020ADF8080032
:10051000ADF80A00ADF80C00ADF810000C20ADF8F5
:100520000E0001A9434800F043FC012240F225518E
:10053000404800F018FC01213E4800F0DCFB40215F
:100540003C4800F0CFFB0121442000F017FA0121C4
:10055000202000F033FA082206213748FFF7D8FEA2
:10056000082207213448FFF7D3FE082211463348FA
:10057000FFF7CEFE08220F213048FFF7C9FE00200A
:100580008DF81A0001208DF81B0002208DF818004C
:100590004020059002208DF8190005A92648FFF794
:1005A0006FFE02208DF818008020059005A92248D2
:1005B000FFF766FE02208DF81800C001059005A91E
:1005C0001E48FFF75DFE02208DF81800800305909D
:1005D00005A91A48FFF754FE4FF4E13001900020BE
:1005E000ADF80800ADF80A00ADF80C004FF440700B
:1005F000ADF810000C20ADF80E0001A9104800F075
:10060000D7FB012240F225510D4800F0ACFB01213F
:100610000B4800F070FB4021094800F063FB07B075
:1006200000BD000000040240001001400000024034
:10063000004400400048004000080240001802400A
:10064000001401400448006910F4807F01D10120AA
:1006500070470020FCE700000020024004480068CA
:1006600010F4005F01D1012070470020FCE700007A
:10067000100802400448006910F4006F01D1012005
:1006800070470020FCE7000000200240044800689A
:1006900010F0040F01D1012070470020FCE700009A
:1006A000101C02400448006810F0080F01D101201E
:1006B00070470020FCE70000101C0240044800685E
:1006C00010F4006F01D1012070470020FCE700000A
:1006D000101402400448006810F0800F01D101207E
:1006E00070470020FCE70000101802400448006832
:1006F00010F4004F01D1012070470020FCE70000FA
:10070000101C024000BFFEE77047000070B50021DA
:1007100000230F22C47824B3174C246804F4E06447
:10072000C4F5E064C4F30721C1F10404E3B20A4153
:1007300044789C40E1B28478144021430C07210E98
:100740000E4C05786155047804F01F050124AC4077
:1007500005786D114FF0E02606EB8505C5F80041E0
:1007600009E0047804F01F050124AC40044D06782C
:10077000761145F8264070BD0CED00E000E400E085
:1007800080E100E002490143024A11607047000025
:100790000000FA050CED00E07047000010B517A04E
:1007A00000F092FC16A000F08FFC25A12CA000F018
:1007B0008BFC30A130A000F087FC34A136A000F003
:1007C00083FC02230022012138A000F07DFC45A01B
:1007D00000F07AFC45A000F077FC4AA000F074FC21
:1007E0004DA000F071FC53A000F06EFC59A000F089
:1007F0006BFC03A000F068FC10BD00000A0D0000B7
:100800002A2A2A2A2A2A2A2A2A2A2A2A2A2A2A2A48
:100810002A2A2A2A2A2A2A2A2A2A2A2A2A2A2A2A38
:100820002A2A2A2A2A2A2A2A2A2A2A2A2A2A2A2A28
:100830002A2A2A2A2A2A2A2A2A2A2A2A2A0A0D007F
:1008400046342D3030315FB0B4BCFCBCECB2E2BAFF
:10085000CD4C4544BFD8D6C6C0FDB3CC0000000087
:100860002A20C0FDB3CCC3FBB3C62020203A2025EC
:10087000730D0A00312E30002A20C0FDB3CCB0E643
:10088000B1BE2020203A2025730D0A0032303133CA
:100890002D30322D303100002A20B7A2B2BCC8D58D
:1008A000C6DA2020203A2025730D0A002A20B9CC70
:1008B000BCFEBFE2B0E6B1BE203A205625642E252C
:1008C000642E2564202853544D3332463478785FA3
:1008D0005374645065726970685F447269766572BA
:1008E000290D0A002A200A0D000000002A2051517B
:1008F000202020203A203132393537343436333015
:10090000200D0A002A20CDFACDFA20203A2061726B
:100910006D666C790D0A00002A20456D61696C20B6
:100920003A2061726D666C794071712E636F6D2033
:100930000D0A00002A20CCD4B1A6B5EA3A20617293
:100940006D666C792E74616F62616F2E636F6D0DD1
:100950000A0000002A20436F70797269676874206A
:100960007777772E61726D666C792E636F6D20B02C
:10097000B2B8BBC0B3B5E7D7D30D0A0029B1064A58
:1009800012680243044B1A6004E0034A126882436F
:10099000014B1A60704700003038024029B1064A06
:1009A00012680243044B1A6004E0034A126882434F
:1009B000014B1A60704700004038024029B1064AD6
:1009C00012680243044B1A6004E0034A126882432F
:1009D000014B1A607047000044380240F0B5002116
:1009E0000022002402258C460223304E366806F091
:1009F0000C0121B1042905D0082933D105E02C4E82
:100A0000066032E02B4E06602FE0284E361F366817
:100A1000C6F3805C254E361F366806F03F03BCF1F6
:100A2000000F0AD0234EB6FBF3F6204F3F1F3F685E
:100A3000C7F3881706FB07F409E01D4EB6FBF3F673
:100A40001A4F3F1F3F68C7F3881706FB07F4174E7E
:100A5000361F3668C6F30146761C7500B4FBF5F602
:100A6000066002E0124E066000BF00BF0F4E3668FF
:100A700006F0F0010909104E725C0668D640466027
:100A80000A4E366806F4E051890A0B4E725C4668DD
:100A9000D6408660054E366806F46041490B064E26
:100AA000725C4668D640C660F0BD0000083802405F
:100AB0000024F40040787D010E0000107047000013
:100AC00000210020304A126842F480322E4B1A6016
:100AD00000BF2D4A126802F40030491C10B9B1F56C
:100AE000A06FF6D1284A126812F4003F01D001200D
:100AF00000E00020012845D1234A4032126842F02C
:100B00008052214B40331A60204A126842F48042DE
:100B10001E4B1A601C4A083212681B4B08331A60BD
:100B20001A46126842F400421A601A46126842F4E9
:100B3000A0521A60164A1B1F1A601A1F126842F050
:100B400080721B1F1A6000BF0F4A126812F0007FEC
:100B5000FAD040F205620F4B1A600B4A0832126855
:100B600022F00302084B08331A601A46126842F05A
:100B700002021A6000BF044A0832126802F00C0236
:100B8000082AF8D170470000003802400070004089
:100B900019544007003C024010B500F001F810BDA8
:100BA00010B51B48006840B119480068401E18493C
:100BB000086002D1012017490870002408E004EB06
:100BC0004401154A02EB810000F0F9FD601CC4B23B
:100BD000042CF4DB11480068401C104908600846EA
:100BE00000686FF00041884202D100200B49086084
:100BF00000F0E4FD0A480078401CC0B208490870C3
:100C00000A2803DB0020087000F0D4FD10BD0000AE
:100C10000000001004000010C400001008000010C4
:100C20000C00001010B51548006840F4700013491E
:100C300008601348006840F0010011490860002076
:100C40000F49083108600E4800680E4908400C49F9
:100C500008600D48091D0860081F006820F4802006
:100C6000091F0860002006490C310860FFF728FFC3
:100C70004FF0005001498039086010BD88ED00E058
:100C800000380240FFFFF6FE1030002410B5024885
:100C900000F001F910BD0000F400001010B502488A
:100CA00000F0F9F810BD00001809001010B5024856
:100CB00000F0F1F810BD00003C11001004200149C3
:100CC00008807047180402400420014908807047DA
:100CD0001A04024010B5024800F0DDF810BD000013
:100CE0006019001001F40072B2F5007F00D100BF5E
:100CF000CA430280704721B1828942F40052828146
:100D000004E082894DF6FF731A408281704730B546
:100D10000246002400239C460020A1F510656A3D90
:100D200000D100BFC1F3421C01F01F03012505FAE9
:100D300003F3BCF1010F02D195892B4007E0BCF110
:100D4000020F02D1158A2B4001E0958A2B400C122C
:100D5000012505FA04F415882C4013B10CB10120CB
:100D600000E0002030BD70B503460024A4460025F5
:100D70000020A1F510666A3E00D100BF1846C1F3FD
:100D8000421401F01F0C012606FA0CF5012C01D1CA
:100D90000C3004E0022C01D1103000E014301AB104
:100DA00006682E43066002E00668AE43066070BD2A
:100DB0002DE9FF4705460E460024A14600BFA04688
:100DC000B08900B100BF2C8A24F44054F088044359
:100DD0002C82AC8941F20C608443B088318908438D
:100DE000718908430443AC81AC8A24F44074B0890F
:100DF0000443AC826846FFF7F1FD2048854202D0EB
:100E00001F48854202D1DDF80C9001E0DDF8089022
:100E1000A88910F4004F08D009EBC90000EB0910B5
:100E200031684900B0FBF1F707E009EBC90000EBBE
:100E3000091031688900B0FBF1F76420B7FBF0F0CE
:100E400004012009642101FB1078A88910F4004FE7
:100E500008D0322000EBC800B0FBF1F000F0070032
:100E6000044308E0322000EB08106421B0FBF1F0ED
:100E700000F00F0004432C81BDE8FF870010014003
:100E80000014014001468888C0F308007047C1F390
:100E900008028280704710B5044640F22551206850
:100EA000FFF735FFB0B1A08AE18A884203D1206AFA
:100EB00008B1206A80472068FFF7E4FFA28AA16892
:100EC0008854A08A401C80B2A082E189884201DB5C
:100ED0000020A08240F227712068FFF718FF00B3BE
:100EE000608A218A88420CD1002240F22771206852
:100EF000FFF739FF012240F226612068FFF733FF38
:100F000033E0638A6268D15C2068FFF7C0FF608AC3
:100F1000401C80B26082A189884226DB002060826A
:100F200023E040F226612068FFF7F1FEE8B1608A15
:100F3000218A88420AD1002240F226612068FFF708
:100F400012FFE06988B1E06980470EE0638A626859
:100F5000D15C2068FFF79BFF608A401C80B26082F2
:100F6000A189884201DB0020608210BD2DE9F0419B
:100F700004460E4617464FF00008012000F0C6F860
:100F8000208A618A884201D14FF00108002000F0D8
:100F9000BDF8002514E0705D228A61688854012044
:100FA00000F0B4F8208A401C80B22082A1898842D7
:100FB00001DB00202082002000F0A8F8681C85B228
:100FC000BD42E8DBB8F1010F05D1012240F22771E3
:100FD0002068FFF7C8FEBDE8F081000027482849D7
:100FE000086028484860284888604FF480608881FD
:100FF000C8810020088248828882C8828861C861CE
:1010000008622248224908602248486022488860D5
:1010100001208881C002C88100200882488288821D
:10102000C8828861C86108621C481D4908601D4863
:1010300048601D4888604FF480608881C881002026
:10104000088248828882C882184888611848C86126
:101050000020086217481849086018484860184876
:1010600088604FF480608881C881002008824882AF
:101070008882C8828861C861086270470010014098
:10108000F400001018010010180500100044004082
:10109000180900100D0000103C0900100048004025
:1010A0003C1100106011001060150010BD0C0020F4
:1010B000C90C0020001401406019001084190010B0
:1010C000841D001000BFFEE70FB4054B10B503A947
:1010D000044A029800F01EF810BC5DF814FB0000F2
:1010E000E91800203400001002E008C8121F08C1EF
:1010F000002AFAD170477047002001E001C1121F99
:10110000002AFBD1704780F31088704780F3108865
:10111000704700002DE9FF4F8BB005469A460F46F9
:101120000026C7E0252837D100246D1C654AA1465A
:1011300001212B78203B01FA03F0104202D0044336
:101140006D1CF6E728782E2817D115F8010F44F00A
:1011500004042A280ED06FF02F022878A0F1300165
:1011600009290AD809EB890102EB410100EB0109C9
:101170006D1CF2E757F8049B6D1C287869283ED057
:1011800006DC00286FD063280CD0642804D136E038
:10119000732810D075284CD052460D99904706F10F
:1011A000010686E001CF8DF8000000208DF80100D7
:1011B000E846012003E057F8048B4FF0FF30610749
:1011C0004FF0000401D40AE0641C4C450DDA84425F
:1011D000FADB18F804100029F6D106E0641C8442FA
:1011E000FCDB18F804100029F8D1264404E018F8B4
:1011F000010B52460D999047641EF8D259E001CF79
:101200004FF00A0B002804DAC0F100004FF02D0166
:1012100002E0210504D52B218DF82410012104E0E2
:10122000E10701D02021F7E700210DF12008089106
:101230000AE001CF4FF00A0BF6E75946FEF7C0FF70
:1012400001F1300208F8012D0028F6D1ADEB0800BD
:1012500000F1200B600701D44FF00109D94503DDEF
:10126000A9EB0B0001E029E000208146002406E004
:1012700009A85246005D0D999047761C641C089899
:101280008442F5DB04E0302052460D999047761CED
:10129000B9F10001A9F10109F5DC05E018F8010B2D
:1012A00052460D999047761CBBF10001ABF1010B42
:1012B000F4DC6D1C287800287FF434AF0FB0304682
:1012C000BDE8F08F092801000146042901DB002058
:1012D000704701EB4100084A02EB8000407801288A
:1012E00008D1002001EB4102034B03EB8202507056
:1012F0000120EDE70020EBE7C400001070B50546C3
:10130000304800EB05142068804700283ED0207943
:10131000052802DA0520207152E020790A2803DA34
:101320002079401C20714BE0A07A38B90120A072CE
:1013300005EB4501491CC8B200F02CFA20890028B1
:101340003EDDE088218988420DDAE088401C80B2C9
:10135000E0802189884233D105EB4501C91CC8B220
:1013600000F018FA2CE0E07A002829DD207B401CF0
:10137000C0B22073E17A884222DB0020207305EBA3
:101380004501491CC8B200F005FA19E0207905288A
:1013900002DD0520207110E0207918B12079401E6F
:1013A00020710AE0A07A012807D10020A07205EB85
:1013B0004501891CC8B200F0EDF90020E0802073DF
:1013C00070BD0000380000100B48807A0A4AD27ABB
:1013D000904201D1002070470748807A064A115C8C
:1013E0001046807A401CC0B290720A2801DB0020AF
:1013F00090720846EFE70000B8000010704710B583
:1014000000F04AF900F0BCF800F003F800F0F6F83C
:1014100010BD10B500F054F800F002F810BD000047
:101420001CB501214FF4F270FFF7A8FA00208DF8E7
:1014300004008DF806008DF8070002208DF80500E5
:10144000C001009069461948FEF71AFF4FF400509A
:10145000009069461648FEF713FF4FF400600090B5
:1014600069461248FEF70CFF0420009069461148B7
:10147000FEF706FF0820009069460E48FEF700FFC1
:101480004FF40060009069460B48FEF7F9FE80209B
:10149000009069460948FEF7F3FE4FF400400090C3
:1014A00069460448FEF7ECFE1CBD00000020024027
:1014B00000080240001C02400014024000180240D4
:1014C0000021254A9172D172002018E06421234A3C
:1014D00002EB001211810221204A02EB001211716D
:1014E00000211E4A02EB001291721C4A02EB00120C
:1014F000D1721A4A02EB00121173411CC8B20828BB
:10150000E4DB642215490A87052281F83B20642226
:10151000A1F84820052281F84B206422A1F8582028
:10152000052281F85B206422A1F86820052281F859
:101530006B200B49094A11600A4911610A4911627D
:101540000A4911630A4911640A4911650A49116679
:101550000A49116770470000B800001038000010F9
:10156000450600205D060020750600208D0600203F
:10157000A5060020BD060020D5060020ED060020AF
:101580001CB501214FF49270FFF7F8F9012000F02B
:1015900097F8022000F094F8032000F091F804205E
:1015A00000F08EF801208DF8040000208DF8060070
:1015B0008DF8070003208DF805004FF4806000903F
:1015C00069460B48FEF75CFE80200090694609489A
:1015D000FEF756FE4FF48070009069460548FEF70E
:1015E0004FFE0420009069460348FEF749FE1CBDEB
:1015F00000200240001402400008024070B50020A4
:1016000016E0002100EB40021F4B03EB8202516009
:1016100000EB400203EB8202916000EB400203EB1F
:101620008202517000EB400203F82210411CC8B244
:101630000428E6DB154909684FF47A73B1FBF3F22D
:10164000B2F1807F00D31DE022F07F41491E4FF0B0
:10165000E023596159170F23002907DA1C07260ECA
:101660000B4C01F00F052D1F665503E01C07250EDE
:10167000084C655400BF00214FF0E0239961072119
:10168000196100BF70BD0000C400001020000010F0
:1016900018ED00E000E400E010B5FFF79FFCFEF756
:1016A0005DFEFEF7B7FD10BD10B5002404E0204636
:1016B000FFF724FE601CC4B2082CF8DB10BD00004C
:1016C000411EC8B220B94FF480610A4A118310E06C
:1016D000012803D18021084A11800AE0022803D1A1
:1016E000C101054A118004E0032802D10421034A04
:1016F0001180704700200240181402401808024070
:10170000411EC8B220B94FF480610A4A518310E0EB
:10171000012803D18021084A11800AE0022803D160
:10172000C101054A118004E0032802D10421034AC3
:1017300011807047002002401A1402401A0802402B
:10174000012806D11049496981F480610E4A51612E
:1017500019E0022806D10D49096881F080010B4A81
:10176000116010E0032806D10849096881F48071EE
:10177000064A116007E0042805D10549096881F08F
:101780000401034A11607047002002401414024013
:10179000140802400649C97A054A50541146C97ACC
:1017A000491CC9B2D1720A2901DB0021D1727047EC
:1017B000B800001010B5FFF777FF10BD7047416803
:1017C00051B14168491E416006D101214170017843
:1017D000012901D1816841607047000070B504465D
:1017E0000D46042C06DB124A12A11DA0FFF76CFC6B
:1017F00000BFFEE70120FFF786FC04EB4400204910
:1018000001EB8000456004EB440001EB8000856043
:10181000002004EB44011A4A02EB810148700120C8
:1018200004EB440102F821000020FFF76CFC70BDBE
:10183000EB1A00202E2E5C2E2E5C557365725C62B6
:1018400073705F73746D3332663478785C7372636F
:101850005C6273705F74696D65722E6300000000D6
:101860004572726F723A2066696C652025732C2070
:1018700066756E6374696F6E20257328290D0A00E2
:10188000C40000102DE9F04104460E4617460CB97D
:101890000E4D0FE0012C01D10D4D0BE0022C01D1BA
:1018A0000C4D07E0032C01D1BDE8F081042C00D1E0
:1018B000FAE7F9E7A86908B1A86980473A463146CE
:1018C0002846FFF753FB00BFEEE70000F4000010CE
:1018D000180900103C11001013B50446012201A99B
:1018E0002046FFF7CFFF1CBD70B504460D46E1B2A0
:1018F0000020FFF7F1FF204670BD0000FFF77FFDDD
:10190000FEF74CFF35A0FFF7DFFB4FF4FA71002024
:10191000FFF764FF61E0FFF771FD0020FFF7D4FCE3
:1019200010B10420FFF70CFFFFF74EFD0446002C1A
:1019300053D0182C4FD2DFE804F04E0C134E1A216E
:101940004E282F4E364E4E3A4E4E3E4E4E424E4E44
:10195000464A0120FFF7D4FE24A0FFF7B5FB3BE089
:101960000120FFF7ADFE27A0FFF7AEFB34E0022019
:10197000FFF7C6FE29A0FFF7A7FB2DE00220FFF727
:101980009FFE2CA0FFF7A0FB26E00320FFF7B8FE88
:101990002EA0FFF799FB1FE00320FFF791FE31A077
:1019A000FFF792FB18E035A0FFF78EFB14E037A09D
:1019B000FFF78AFB10E039A0FFF786FB0CE03BA0A5
:1019C000FFF782FB08E03DA0FFF77EFB04E03FA0AD
:1019D000FFF77AFB00E000BF00BF9CE74C454434B2
:1019E000D5FDD4DAC9C1CBB80D0A00004B31BCFC1F
:1019F000B0B4CFC22C204C454431B5E3C1C10D0A6F
:101A0000000000004B31BCFCB5AFC6F02C204C45AB
:101A10004431CFA8C3F00D0A000000004B32BCFCDB
:101A2000B0B4CFC22C204C454432B5E3C1C10D0A3D
:101A3000000000004B32BCFCB5AFC6F02C204C457A
:101A40004432CFA8C3F00D0A000000004B33BCFCA9
:101A5000B0B4CFC22C204C454433B5E3C1C10D0A0C
:101A6000000000004B33BCFCB5AFC6F02C204C4549
:101A70004433CFA8C3F00D0A00000000D2A1B8CBB8
:101A8000C9CFBCFCB0B4CFC20D0A0000D2A1B8CB04
:101A9000CFC2BCFCB0B4CFC20D0A0000D2A1B8CBFB
:101AA000D7F3BCFCB0B4CFC20D0A0000D2A1B8CBB2
:101AB000D3D2BCFCB0B4CFC20D0A0000D2A1B8CBC7
:101AC0004F4BBCFCB0B4CFC20D0A0000D2A1B8CBC2
:101AD0004F4BBCFCB5AFC6F00D0A00006273705FDF
:101AE000537461727454696D6572006273705F53F0
:101AF000746172744175746F54696D6572006273BC
:101B0000705F53746F7054696D6572002C1B0020F8
:101B10000000001038000000E8100020641B0020C6
:101B20003800001050610000F81000200000000094
:101B300000000000000000000000000000000102A2
:101B4000030401020304060708090000007A030ADF
:101B5000000000000000000001020304060708095D
:041B60000000000081
:04000005200001894D
:00000001FF
